:100000000C942A000C9447000C9447000C94470071
:100010000C9447000C9447000C9447000C94470044
:100020000C9447000C9447000C94F5050C94470081
:100030000C9447000C94650F0C94ED0E0C94470043
:100040000C9447000C9447000C9447000C94470014
:100050000C94470011241FBECFE5D8E0DEBFCDBF12
:1000600010E0A0E6B0E0ECE7FFE702C005900D92DB
:10007000A637B107D9F710E0A6E7B0E001C01D929E
:10008000A538B107E1F70E94D60F0C94BC3F0C9441
:100090000000EF92FF920F931F937B018C0120E0F1
:1000A00030E040E05FE40E94490388238CF0C801FF
:1000B000B70120E030E040E05FE40E94C1010E940F
:1000C000A9039B01AC01205030404040504806C07D
:1000D000C801B7010E94A9039B01AC01B901CA0183
:1000E0001F910F91FF90EF900895A0E0B0E0EBE733
:1000F000F0E00C94853FDC012B01FA019C919230D9
:1001000008F439C1EB018881823008F433C194309E
:1001100069F4843009F02FC111969C91119789815F
:10012000981709F428C1A0E6B0E025C1843009F48D
:1001300021C18230A9F4923009F01DC19A01AD01AC
:1001400088E0EA010990AE01E90109929E0181501F
:10015000C1F7E201898111969C918923818308C1AD
:10016000923009F407C112962D903C901397EB0141
:100170008A819B811496AD90BD90CD90DC901797AD
:10018000EC80FD800E811F819101281B390BB90184
:1001900037FF04C066277727621B730B6032710537
:1001A0000CF061C0121613066CF537014801062EDB
:1001B00004C096948794779467940A94D2F721E0C8
:1001C00030E040E050E004C0220F331F441F551FB1
:1001D0006A95D2F721503040404050402E213F21B7
:1001E00040235123211531054105510521F021E01E
:1001F00030E040E050E079018A01E628F72808293C
:1002000019293CC0232BD1F1260E371E350146019A
:10021000062E04C096948794779467940A94D2F734
:1002200021E030E040E050E004C0220F331F441FC3
:10023000551F6A95D2F721503040404050402A2146
:100240003B214C215D21211531054105510521F04E
:1002500021E030E040E050E059016A01A628B728CB
:10026000C828D9280BC0821593052CF01C01AA249C
:10027000BB24650103C0EE24FF24870111969C91E5
:10028000D20111968C91981709F445C0992339F041
:10029000A80197012A193B094C095D0906C0A6016E
:1002A00095012E193F09400B510B57FD08C01182D3
:1002B0003382228224833583468357831DC081E0A5
:1002C00081833382228288279927DC01821B930B4A
:1002D000A40BB50B84839583A683B7830DC0220F2F
:1002E000331F441F551F24833583468357838281E0
:1002F000938101979383828324813581468157813D
:10030000DA01C9010197A109B1098F5F9F4FAF4F72
:10031000BF4328F30BC0918333822282EA0CFB1C7B
:100320000C1D1D1DE482F5820683178383E0808304
:10033000248135814681578157FF1AC0C901AA27F8
:1003400097FDA095BA2F81709070A070B0705695EF
:10035000479537952795822B932BA42BB52B848318
:100360009583A683B7838281938101969383828349
:10037000DF0101C0D201CD01CDB7DEB7E2E10C94BF
:10038000A13FA0E2B0E0E7ECF1E00C94913F69837B
:100390007A838B839C832D833E834F835887E9E048
:1003A000EE2EF12CEC0EFD1ECE010196B7010E943F
:1003B000D2048E010F5E1F4FCE010596B8010E9438
:1003C000D2048A8991E089278A8BC701B801AE01DE
:1003D000475E5F4F0E9475000E94FD03A096E6E015
:1003E0000C94AD3FA0E2B0E0E8EFF1E00C94913F57
:1003F00069837A838B839C832D833E834F835887C5
:10040000F9E0EF2EF12CEC0EFD1ECE010196B701A6
:100410000E94D2048E010F5E1F4FCE010596B801D7
:100420000E94D204C701B801AE01475E5F4F0E942F
:1004300075000E94FD03A096E6E00C94AD3FA0E29B
:10044000B0E0E5E2F2E00C94853F69837A838B8328
:100450009C832D833E834F835887CE010196BE0136
:10046000675F7F4F0E94D204CE010596BE016F5E8A
:100470007F4F0E94D2049985923088F0898982301A
:10048000C8F0943019F4823051F404C0843029F457
:10049000923081F480E690E0C6C0923049F420E0CA
:1004A0009A858A89981321E02A87CE010996BBC0D4
:1004B000823049F420E09A858A89981321E02A8BBA
:1004C000CE014196B0C02D843E844F8458886D88FB
:1004D0007E888F88988CEE24FF248701AA24BB2471
:1004E000650140E050E060E070E0E0E0F0E0C10174
:1004F00081709070892BE9F0E60CF71C081D191D1E
:100500009A01AB012A0D3B1D4C1D5D1D80E090E062
:10051000A0E0B0E0E614F7040805190520F481E036
:1005200090E0A0E0B0E0BA01A901480F591F6A1F8E
:100530007B1FAA0CBB1CCC1CDD1C97FE08C081E0F5
:1005400090E0A0E0B0E0A82AB92ACA2ADB2A3196B6
:10055000E032F10549F0660C771C881C991C569412
:10056000479437942794C3CFFA85EA892B893C892D
:100570008B859C85280F391F2E5F3F4F17C0CA01FE
:1005800081709070892B61F016950795F794E79428
:1005900080E090E0A0E0B0E8E82AF92A0A2B1B2BC3
:1005A00076956795579547952F5F3F4F77FDE7CF36
:1005B0000CC0440F551F661F771F17FD4160EE0CDE
:1005C000FF1C001F111F21503040403090E05907A0
:1005D00090E0690790E4790760F32B8F3C8FDB0193
:1005E000CA018F779070A070B07080349105A1051A
:1005F000B10561F447FD0AC0E114F10401051105DC
:1006000029F0405C5F4F6F4F7F4F40781A8EFE1786
:1006100011F081E08A8F4D8F5E8F6F8F78A383E01A
:10062000898FCE0149960E94FD03A096E2E10C94C9
:10063000A13FA8E1B0E0EFE1F3E00C94913F6983C2
:100640007A838B839C832D833E834F83588789E0F5
:10065000E82EF12CEC0EFD1ECE010196B7010E9492
:10066000D2048E010F5E1F4FCE010596B8010E9485
:10067000D2048985823040F08989823028F0C70110
:10068000B8010E944A0501C08FEF6896E6E00C941D
:10069000AD3FA8E1B0E0EFE4F3E00C94913F698353
:1006A0007A838B839C832D833E834F83588789E095
:1006B000E82EF12CEC0EFD1ECE010196B7010E9432
:1006C000D2048E010F5E1F4FCE010596B8010E9425
:1006D000D2048985823040F08989823028F0C701B0
:1006E000B8010E944A0501C08FEF6896E6E00C94BD
:1006F000AD3FA8E1B0E0EFE7F3E00C94913F6983F0
:100700007A838B839C832D833E834F83588789E034
:10071000E82EF12CEC0EFD1ECE010196B7010E94D1
:10072000D2048E010F5E1F4FCE010596B8010E94C4
:10073000D2048985823040F08989823028F0C7014F
:10074000B8010E944A0501C081E06896E6E00C9479
:10075000AD3FACE0B0E0EFEAF3E00C94953F698385
:100760007A838B839C83CE010196BE016B5F7F4FA2
:100770000E94D2048D81823061F1823050F1843048
:1007800021F48E81882351F12EC02F81388537FDC9
:1007900020C06E812F3131051CF06623F9F023C093
:1007A0008EE190E0821B930B29853A854B855C8511
:1007B00004C056954795379527958A95D2F76623B5
:1007C000B1F050954095309521953F4F4F4F5F4F79
:1007D0000EC020E030E040E050E009C02FEF3FEFD6
:1007E0004FEF5FE704C020E030E040E050E8B9019F
:1007F000CA012C96E2E00C94B13FDF92EF92FF9297
:100800000F931F93FC01E480F58006811781D1804E
:100810008081823048F480E090E0A0E1B0E0E82AF6
:10082000F92A0A2B1B2BA5C0843009F49FC0823003
:1008300021F4EE24FF24870105C0E114F104010531
:10084000110519F4E0E0F0E096C0628173819FEF3A
:10085000623879070CF05BC022E83FEF261B370BAC
:100860002A3131052CF020E030E040E050E02AC091
:10087000B801A701022E04C0769567955795479554
:100880000A94D2F781E090E0A0E0B0E004C0880FC5
:10089000991FAA1FBB1F2A95D2F70197A109B10979
:1008A0008E219F21A023B1230097A105B10521F03E
:1008B00081E090E0A0E0B0E09A01AB01282B392B59
:1008C0004A2B5B2BDA01C9018F779070A070B07052
:1008D00080349105A105B10539F427FF09C0205CDA
:1008E0003F4F4F4F5F4F04C0215C3F4F4F4F5F4F13
:1008F000E0E0F0E02030A0E03A07A0E04A07A0E402
:100900005A0710F0E1E0F0E079018A0127C0603871
:10091000710564F5FB01E158FF4FD801C7018F77DE
:100920009070A070B07080349105A105B10539F4C4
:10093000E7FE0DC080E490E0A0E0B0E004C08FE3EB
:1009400090E0A0E0B0E0E80EF91E0A1F1B1F17FFA1
:1009500005C016950795F794E794319687E01695AC
:100960000795F794E7948A95D1F705C0EE24FF2404
:100970008701EFEFF0E06E2F679566276795902F60
:100980009F77D794DD24D7948E2F8695492F462BB9
:10099000582F5D29B701CA011F910F91FF90EF9069
:1009A000DF900895FC01DB01408151812281622F9B
:1009B0006F7770E0221F2227221F9381892F880FD3
:1009C000822B282F30E0991F9927991F11969C930D
:1009D000119721153105A9F54115510561057105DD
:1009E00011F482E037C082E89FEF13969C938E93B8
:1009F00012979A01AB0167E0220F331F441F551F66
:100A00006A95D1F783E08C930DC0220F331F441FEA
:100A1000551F12968D919C911397019713969C9355
:100A20008E931297203080E0380780E0480780E4FA
:100A3000580758F314962D933D934D935C93179755
:100A400008952F3F310579F4411551056105710570
:100A500019F484E08C93089564FF03C081E08C93C3
:100A600012C01C9210C02F57304013963C932E9307
:100A7000129783E08C9387E0440F551F661F771F02
:100A80008A95D1F7706414964D935D936D937C9322
:100A9000179708951F93DC01FB019C91923008F495
:100AA00047C08081823008F443C0943051F41196DD
:100AB0001C91843099F58181682F70E0611B710968
:100AC0003FC0843021F0923031F48230B9F181811D
:100AD000882389F12DC011961C9111978230F1F075
:100AE00081811817D9F412962D913C911397828128
:100AF00093818217930794F028173907BCF0149656
:100B00008D919D910D90BC91A02D248135814681C0
:100B10005781281739074A075B0718F4112341F05A
:100B20000AC082179307A407B50740F4112319F0F0
:100B300061E070E005C06FEF7FEF02C060E070E041
:100B4000CB011F910895DF93CF93CDB7DEB7A3E517
:100B5000B0E0E3E5F0E0808188608C93A3E5B0E04D
:100B6000E3E5F0E080818F7B8C93ECE5F0E08AEFA9
:100B70008083A9E5B0E0E9E5F0E0808182608C93B4
:100B8000A3E5B0E0E3E5F0E080818E7F8C93A3E500
:100B9000B0E0E3E5F0E0808182608C93A3E5B0E013
:100BA000E3E5F0E080818B7F8C93CF91DF91089516
:100BB000DF93CF9300D00F92CDB7DEB79B838A83AC
:100BC00019828A819B81009739F08A819B81909359
:100BD00077008093760002C081E0898389810F903D
:100BE0000F900F90CF91DF9108951F920F920FB643
:100BF0000F9211242F933F934F935F936F937F93A3
:100C00008F939F93AF93BF93EF93FF93DF93CF9314
:100C1000CDB7DEB78091760090917700009729F0EC
:100C2000E0917600F09177000995CF91DF91FF91E7
:100C3000EF91BF91AF919F918F917F916F915F9154
:100C40004F913F912F910F900FBE0F901F901895CD
:100C5000DF93CF93CDB7DEB7AFE5B0E0EFE5F0E0DF
:100C6000808180688C93CF91DF910895DF93CF933B
:100C7000CDB7DEB7AFE5B0E0EFE5F0E080818F778C
:100C80008C93CF91DF910895DF93CF93CDB7DEB7EB
:100C900027970FB6F894DEBF0FBECDBF89836A8356
:100CA0004B838981853008F0F4C08981882309F459
:100CB000F0C08A81883008F0ECC08B81882309F06D
:100CC00075C08981282F30E03F832E838E819F81DC
:100CD0008230910561F12E813F812330310534F45A
:100CE0008E819F818130910569F0D3C02E813F8133
:100CF0002330310589F18E819F818430910509F47B
:100D000040C0C7C0AAE3B0E0EAE3F0E08081482F2A
:100D10008A81282F30E081E090E0022E02C0880F07
:100D2000991F0A94E2F7809584238C93B2C0A7E3BD
:100D3000B0E0E7E3F0E08081482F8A81282F30E09F
:100D400081E090E0022E02C0880F991F0A94E2F71A
:100D5000809584238C939DC0A4E3B0E0E4E3F0E0AD
:100D60008081482F8A81282F30E081E090E0022E98
:100D700002C0880F991F0A94E2F7809584238C9310
:100D800088C0A1E3B0E0E1E3F0E08081482F8A81F0
:100D9000282F30E081E090E0022E02C0880F991FDA
:100DA0000A94E2F7809584238C9373C08B81813001
:100DB00009F06FC08981282F30E03D832C838C811E
:100DC0009D818230910551F12C813D812330310587
:100DD00034F48C819D818130910561F05AC02C8161
:100DE0003D812330310571F18C819D8184309105E5
:100DF000E9F14FC0AAE3B0E0EAE3F0E08081482FD8
:100E00008A81282F30E081E090E0022E02C0880F16
:100E1000991F0A94E2F7842B8C933BC0A7E3B0E0C0
:100E2000E7E3F0E08081482F8A81282F30E081E0DD
:100E300090E0022E02C0880F991F0A94E2F7842BDB
:100E40008C9327C0A4E3B0E0E4E3F0E08081482F76
:100E50008A81282F30E081E090E0022E02C0880FC6
:100E6000991F0A94E2F7842B8C9313C0A1E3B0E09E
:100E7000E1E3F0E08081482F8A81282F30E081E093
:100E800090E0022E02C0880F991F0A94E2F7842B8B
:100E90008C9327960FB6F894DEBF0FBECDBFCF91CF
:100EA000DF910895DF93CF93CDB7DEB727970FB6C5
:100EB000F894DEBF0FBECDBF89836A834B838981DF
:100EC000853008F0F4C08981882309F4F0C08A8154
:100ED000883008F0ECC08B81882309F075C08981C7
:100EE000282F30E03F832E838E819F8182309105B1
:100EF00061F12E813F812330310534F48E819F8151
:100F00008130910569F0D3C02E813F8123303105B6
:100F100089F18E819F818430910509F440C0C7C05A
:100F2000ABE3B0E0EBE3F0E08081482F8A81282F2B
:100F300030E081E090E0022E02C0880F991F0A94F1
:100F4000E2F7809584238C93B2C0A8E3B0E0E8E395
:100F5000F0E08081482F8A81282F30E081E090E006
:100F6000022E02C0880F991F0A94E2F7809584230D
:100F70008C939DC0A5E3B0E0E5E3F0E08081482FCD
:100F80008A81282F30E081E090E0022E02C0880F95
:100F9000991F0A94E2F7809584238C9388C0A2E37A
:100FA000B0E0E2E3F0E08081482F8A81282F30E032
:100FB00081E090E0022E02C0880F991F0A94E2F7A8
:100FC000809584238C9373C08B81813009F06FC02E
:100FD0008981282F30E03D832C838C819D81823054
:100FE000910551F12C813D812330310534F48C8100
:100FF0009D818130910561F05AC02C813D81233063
:10100000310571F18C819D8184309105E9F14FC0EA
:10101000ABE3B0E0EBE3F0E08081482F8A81282F3A
:1010200030E081E090E0022E02C0880F991F0A9400
:10103000E2F7842B8C933BC0A8E3B0E0E8E3F0E058
:101040008081482F8A81282F30E081E090E0022EB5
:1010500002C0880F991F0A94E2F7842B8C9327C053
:10106000A5E3B0E0E5E3F0E08081482F8A81282FF6
:1010700030E081E090E0022E02C0880F991F0A94B0
:10108000E2F7842B8C9313C0A2E3B0E0E2E3F0E03C
:101090008081482F8A81282F30E081E090E0022E65
:1010A00002C0880F991F0A94E2F7842B8C9327962D
:1010B0000FB6F894DEBF0FBECDBFCF91DF9108957C
:1010C000DF93CF9300D000D00F92CDB7DEB78983E6
:1010D0006A838981853008F074C08981882309F486
:1010E00070C08A81883008F06CC08981282F30E078
:1010F0003D832C834C815D814230510549F18C81C7
:101100009D818330910534F42C813D81213031055E
:1011100061F057C04C815D814330510561F18C8194
:101120009D8184309105D1F14CC0E9E3F0E08081EC
:10113000282F30E08A81882F90E0A90102C05595C0
:1011400047958A95E2F7CA01582F51705B833BC0DF
:10115000E6E3F0E08081282F30E08A81882F90E05C
:10116000A90102C0559547958A95E2F7CA01582F03
:1011700051705B8328C0E3E3F0E08081282F30E0EA
:101180008A81882F90E0A90102C0559547958A95DC
:10119000E2F7CA01582F51705B8315C0E0E3F0E01D
:1011A0008081282F30E08A81882F90E0A90102C039
:1011B000559547958A95E2F7CA01582F51705B8380
:1011C00002C082E08B838B810F900F900F900F9065
:1011D0000F90CF91DF910895DF93CF9300D000D08F
:1011E00000D0CDB7DEB789836A838981853008F066
:1011F0006DC08981882309F469C08A818F3FA1F578
:101200008981282F30E03E832D838D819E8182301D
:101210009105D9F02D813E812330310534F48D8143
:101220009E818130910561F051C02D813E81233036
:10123000310581F08D819E818430910581F046C019
:10124000EAE3F0E08FEF808341C0E7E3F0E08FEF67
:1012500080833CC0E4E3F0E08FEF808337C0E1E3BC
:10126000F0E08FEF808332C08A81882379F589810D
:10127000282F30E03C832B838B819C818230910529
:10128000D1F02B813C812330310534F48B819C815A
:101290008130910561F01AC02B813C8123303105EA
:1012A00071F08B819C818430910569F00FC0EAE375
:1012B000F0E010820BC0E7E3F0E0108207C0E4E347
:1012C000F0E0108203C0E1E3F0E0108226960FB652
:1012D000F894DEBF0FBECDBFCF91DF910895DF93AD
:1012E000CF9300D000D000D0CDB7DEB789836A831A
:1012F0008981853008F06DC08981882309F469C02F
:101300008A818F3FA1F58981282F30E03E832D838C
:101310008D819E8182309105D9F02D813E812330CF
:10132000310534F48D819E818130910561F051C089
:101330002D813E812330310581F08D819E81843065
:10134000910581F046C0EBE3F0E08FEF808341C070
:10135000E8E3F0E08FEF80833CC0E5E3F0E08FEF5F
:10136000808337C0E2E3F0E08FEF808332C08A8170
:10137000882379F58981282F30E03C832B838B816A
:101380009C8182309105D1F02B813C812330310545
:1013900034F48B819C818130910561F01AC02B81DE
:1013A0003C812330310571F08B819C818430910523
:1013B00069F00FC0EBE3F0E010820BC0E8E3F0E06F
:1013C000108207C0E5E3F0E0108203C0E2E3F0E042
:1013D000108226960FB6F894DEBF0FBECDBFCF9118
:1013E000DF910895DF93CF9300D000D0CDB7DEB763
:1013F000898389818530B8F589818823A1F1898124
:10140000282F30E03C832B838B819C818230910597
:10141000D9F02B813C812330310534F48B819C81C0
:101420008130910561F01FC02B813C812330310553
:1014300081F08B819C818430910581F014C0E9E3B7
:10144000F0E090819A8311C0E6E3F0E020812A83E6
:101450000CC0E3E3F0E030813A8307C0E0E3F0E062
:1014600080818A8302C092E09A838A810F900F90D4
:101470000F900F90CF91DF910895DF93CF93CDB769
:10148000DEB727970FB6F894DEBF0FBECDBF8983B6
:101490006A834B838981853008F0F4C08981882371
:1014A00009F4F0C08A81883008F0ECC08B81882371
:1014B00009F075C08981282F30E03F832E838E810B
:1014C0009F818230910561F12E813F81233031056A
:1014D00034F48E819F818130910569F0D3C02E81D3
:1014E0003F812330310589F18E819F8184309105C0
:1014F00009F440C0C7C0ABE3B0E0EBE3F0E08081AB
:10150000482F8A81282F30E081E090E0022E02C02F
:10151000880F991F0A94E2F7809584238C93B2C0B8
:10152000A8E3B0E0E8E3F0E08081482F8A81282F2B
:1015300030E081E090E0022E02C0880F991F0A94EB
:10154000E2F7809584238C939DC0A5E3B0E0E5E3AA
:10155000F0E08081482F8A81282F30E081E090E000
:10156000022E02C0880F991F0A94E2F78095842307
:101570008C9388C0A2E3B0E0E2E3F0E08081482FE2
:101580008A81282F30E081E090E0022E02C0880F8F
:10159000991F0A94E2F7809584238C9373C08B8102
:1015A000813009F06FC08981282F30E03D832C8382
:1015B0008C819D818230910551F12C813D812330B8
:1015C000310534F48C819D818130910561F05AC0E0
:1015D0002C813D812330310571F18C819D818430D6
:1015E0009105E9F14FC0ABE3B0E0EBE3F0E08081BF
:1015F000482F8A81282F30E081E090E0022E02C03F
:10160000880F991F0A94E2F7842B8C933BC0A8E3C0
:10161000B0E0E8E3F0E08081482F8A81282F30E0B5
:1016200081E090E0022E02C0880F991F0A94E2F731
:10163000842B8C9327C0A5E3B0E0E5E3F0E0808144
:10164000482F8A81282F30E081E090E0022E02C0EE
:10165000880F991F0A94E2F7842B8C9313C0A2E39E
:10166000B0E0E2E3F0E08081482F8A81282F30E06B
:1016700081E090E0022E02C0880F991F0A94E2F7E1
:10168000842B8C9327960FB6F894DEBF0FBECDBF88
:10169000CF91DF910895DF93CF9300D000D000D099
:1016A000CDB7DEB789836A838981853008F06DC044
:1016B0008981882309F469C08A81882381F5898119
:1016C000282F30E03E832D838D819E8182309105CD
:1016D000D1F02D813E812330310534F48D819E81FE
:1016E0008130910561F051C02D813E81233031055B
:1016F00071F08D819E818430910569F046C0EBE3E5
:10170000F0E0108242C0E8E3F0E010823EC0E5E382
:10171000F0E010823AC0E2E3F0E0108236C08A8145
:10172000813099F58981282F30E03C832B838B8190
:101730009C8182309105D9F02B813C812330310589
:1017400034F48B819C818130910561F01EC02B8126
:101750003C812330310581F08B819C81843091055F
:1017600081F013C0EBE3F0E08FEF80830EC0E8E37D
:10177000F0E08FEF808309C0E5E3F0E08FEF808336
:1017800004C0E2E3F0E08FEF808326960FB6F89472
:10179000DEBF0FBECDBFCF91DF910895DF93CF9312
:1017A00000D000D0CDB7DEB789836A8389818530C8
:1017B000B0F58981882399F18981282F30E03C8315
:1017C0002B838B819C8182309105D9F02B813C81C8
:1017D0002330310534F48B819C818130910561F097
:1017E0001EC02B813C812330310581F08B819C818F
:1017F0008430910581F013C0EAE3F0E08A818083B0
:101800000EC0E7E3F0E08A81808309C0E4E3F0E002
:101810008A81808304C0E1E3F0E08A8180830F90B5
:101820000F900F900F90CF91DF910895DF93CF939A
:1018300000D000D0CDB7DEB789836A838981853037
:10184000B0F58981882399F18981282F30E03C8384
:101850002B838B819C8182309105D9F02B813C8137
:101860002330310534F48B819C818130910561F006
:101870001EC02B813C812330310581F08B819C81FE
:101880008430910581F013C0EBE3F0E08A8180831E
:101890000EC0E8E3F0E08A81808309C0E5E3F0E070
:1018A0008A81808304C0E2E3F0E08A8180830F9024
:1018B0000F900F900F90CF91DF910895DF93CF930A
:1018C000CDB7DEB70E94AE0CCF91DF910895DF93C4
:1018D000CF9300D0CDB7DEB79A83898389819A816F
:1018E0000E94F70C0F900F90CF91DF910895DF9336
:1018F000CF9300D0CDB7DEB79A83898389819A814F
:10190000009721F089819A810E94970D0F900F9086
:10191000CF91DF910895DF93CF930F92CDB7DEB7CC
:101920001982CE0101960E940D0E89810F90CF91F0
:10193000DF910895DF93CF9300D00F92CDB7DEB73C
:101940009A8389836B8389819A816B810E947C0E43
:101950000F900F900F90CF91DF910895DF93CF9369
:1019600000D00F92CDB7DEB71B821A8219828B810D
:1019700080688B838B818F7B8B83AAE2B0E0EAE265
:10198000F0E080818D7F8C9383E390E09A8389835C
:101990008B818F7C8B838B81877F8B838B81897FEE
:1019A0008B838B8186608B83E0E4F0E08B81808386
:1019B000E9E2F0E089818083E0E4F0E089819A81C6
:1019C000892F99278083AAE2B0E0EAE2F0E08081E3
:1019D00088608C93AAE2B0E0EAE2F0E08081806166
:1019E0008C930F900F900F90CF91DF910895DF931C
:1019F000CF93CDB7DEB727970FB6F894DEBF0FBEF3
:101A0000CDBF9F838E831D8219821A821B821C8206
:101A100080916800813009F045C082E080936800C1
:101A20000BC089819A81AB81BC810196A11DB11D3A
:101A300089839A83AB83BC83EBE2F0E0808182955B
:101A400086958770882F90E081709070009761F480
:101A500089819A81AB81BC81803523EC920720E09B
:101A6000A20720E0B207E8F289819A81AB81BC81AC
:101A7000803523EC920720E0A20720E0B20719F49A
:101A800081E08D8311C0ABE2B0E0EBE2F0E0808159
:101A900080628C93ECE2F0E08E81808381E0809321
:101AA000680002C083E08D838D8127960FB6F8947D
:101AB000DEBF0FBECDBFCF91DF910895DF93CF93EF
:101AC00000D000D00F92CDB7DEB79B838A837D8391
:101AD0006C83198280916800813001F58C819D8131
:101AE000009719F482E0898319C082E0809368002E
:101AF00081E080937E008C819D819093790080931A
:101B000078008A819B8190937B0080937A00AAE27F
:101B1000B0E0EAE2F0E0808180628C9389810F90EE
:101B20000F900F900F900F90CF91DF910895DF935A
:101B3000CF9300D000D0CDB7DEB79C838B831A82C1
:101B400019828B819C81009799F482E08A831BC063
:101B50008981282F30E08B819C81FC01E20FF31FEB
:101B60008081882F90E00E94F70C89818F5F8983A4
:101B70008981282F30E08B819C81FC01E20FF31FCB
:101B80008081882329F78A810F900F900F900F9002
:101B9000CF91DF910895DF93CF9300D000D00F92C3
:101BA000CDB7DEB79B838A837D836C831982809156
:101BB0006800813039F58A819B81009721F08C8102
:101BC0009D81009719F482E089831EC082E0809392
:101BD000680082E080937E008A819B8190937D00E3
:101BE00080937C008C819D81909379008093780014
:101BF00010927F00AAE2B0E0EAE2F0E08081806229
:101C00008C9302C083E0898389810F900F900F909D
:101C10000F900F90CF91DF910895DF93CF9300D075
:101C20000F92CDB7DEB79B838A83198280916800BB
:101C30008130C9F482E080936800EBE2F0E08081BB
:101C40008823DCF7ABE2B0E0EBE2F0E08081806873
:101C50008C93ECE2F0E08081EA81FB81808381E07B
:101C60008093680002C083E0898389810F900F9080
:101C70000F90CF91DF910895DF93CF9300D000D0E4
:101C80000F92CDB7DEB79B838A837D836C831982E5
:101C900080916800813029F58A819B81009721F02D
:101CA0008C819D81009719F482E089831CC082E0B9
:101CB0008093680081E080937E0080918100909104
:101CC00082009B838A838C819D819093790080938D
:101CD0007800AAE2B0E0EAE2F0E0808180688C93CC
:101CE00002C083E0898389810F900F900F900F903D
:101CF0000F90CF91DF910895DF93CF9300D000D064
:101D00000F92CDB7DEB79C838B836D831A821982C5
:101D10008B819C81009711F482E08A8319820CC028
:101D20008981282F30E08B819C81820F931F0E9434
:101D30000D0E89818F5F898399818D81981780F33A
:101D40008A810F900F900F900F900F90CF91DF919D
:101D50000895DF93CF9300D000D000D0CDB7DEB789
:101D60009B838A836C835E834D8319828091680094
:101D7000813039F58A819B81009721F08D819E8188
:101D8000009719F482E089831EC082E08093680086
:101D900082E080937E0010927F008091810090917C
:101DA00082009B838A838D819E81909379008093AA
:101DB0007800AAE2B0E0EAE2F0E0808180688C93EB
:101DC00002C083E08983898126960FB6F894DEBF2E
:101DD0000FBECDBFCF91DF9108951F920F920FB626
:101DE0000F9211242F933F934F935F936F937F93A1
:101DF0008F939F93AF93BF93EF93FF93DF93CF9313
:101E0000CDB7DEB780917E008130B9F4ECE2F0E02E
:101E100080917A0090917B00808381E080936800BC
:101E2000AAE2B0E0EAE2F0E080818F7D8C93E0915D
:101E30007800F0917900099535C080917E0082305C
:101E400089F5ACE2B0E020917C0030917D0080917A
:101E50007F00882F90E0F901E80FF91F80818C93B3
:101E600080917F008F5F80937F0020917C00309174
:101E70007D0080917F00882F90E0F901E80FF91F25
:101E80008081882379F481E080936800AAE2B0E041
:101E9000EAE2F0E080818F7D8C93E0917800F09110
:101EA00079000995CF91DF91FF91EF91BF91AF91AB
:101EB0009F918F917F916F915F914F913F912F9162
:101EC0000F900FBE0F901F9018951F920F920FB694
:101ED0000F9211242F933F934F935F936F937F93B0
:101EE0008F939F93AF93BF93EF93FF93DF93CF9322
:101EF000CDB7DEB780917E008130C1F4A091810022
:101F0000B0918200ECE2F0E080818C9381E08093DC
:101F10006800AAE2B0E0EAE2F0E080818F778C937B
:101F2000E0917800F091790009952DC080917E00B4
:101F3000823049F5209181003091820080917F00AC
:101F4000882F90E0D901A80FB91FECE2F0E0808162
:101F50008C9380917F008F5F80937F0090917F00B2
:101F600080918000981779F481E080936800AAE25C
:101F7000B0E0EAE2F0E080818F778C93E091780026
:101F8000F09179000995CF91DF91FF91EF91BF9189
:101F9000AF919F918F917F916F915F914F913F9101
:101FA0002F910F900FBE0F901F901895DF93CF9336
:101FB000CDB7DEB72F970FB6F894DEBF0FBECDBFFB
:101FC0000E9428060E945E0C1F860E94A30588EDD1
:101FD00090E10E94D80584E064E041E00E9444065C
:101FE00084E065E041E00E94440684E066E041E070
:101FF0000E94440683E060E041E00E94440683E0E2
:1020000061E041E00E94440683E062E041E00E941A
:10201000440684E062E041E00E94440684E063E01C
:1020200041E00E94440681E060E041E00E944406F5
:1020300081E061E041E00E94440681E062E041E02D
:102040000E94440681E063E041E00E94440684E08F
:1020500064E041E00E94520784E065E041E00E94B4
:10206000520784E066E041E00E94520783E060E0AE
:1020700041E00E94520783E061E041E00E94520784
:1020800083E062E041E00E94520784E062E041E0C8
:102090000E94520784E063E041E00E94520781E021
:1020A00060E041E00E94520781E061E041E00E946F
:1020B000520781E062E041E00E94520781E063E064
:1020C00041E00E94520780E090E4ACE9B5E48B87E0
:1020D0009C87AD87BE876B857C858D859E8520E03E
:1020E00030E04AE755E40E941F02DC01CB018F83F8
:1020F0009887A987BA876F81788589859A8520E036
:1021000030E040E85FE30E94790388232CF481E00B
:1021100090E09E838D833FC06F81788589859A8505
:1021200020E03FEF4FE757E40E94190318164CF5E3
:102130006B857C858D859E8520E030E040E251E412
:102140000E941F02DC01CB01BC01CD010E944900AD
:10215000DC01CB019E838D830FC080E991E09C83DD
:102160008B838B819C810197F1F79C838B838D817D
:102170009E8101979E838D838D819E81009769F753
:1021800014C06F81788589859A850E944900DC0199
:10219000CB019E838D838D819E819A8389838981E2
:1021A0009A810197F1F79A8389830E94F0118BCF6E
:1021B000DF93CF93CDB7DEB78091830090918400F9
:1021C0000196909384008093830080916900282F6A
:1021D00030E080918300909184002817390729F41A
:1021E00084E064E040E00E94520780916A00282F5A
:1021F00030E080918300909184002817390729F4FA
:1022000084E065E040E00E94520780916B00282F37
:1022100030E080918300909184002817390729F4D9
:1022200084E066E040E00E94520780916C00282F15
:1022300030E080918300909184002817390729F4B9
:1022400083E060E040E00E94520780916D00282FFB
:1022500030E080918300909184002817390729F499
:1022600083E061E040E00E94520780916E00282FD9
:1022700030E080918300909184002817390729F479
:1022800083E062E040E00E94520780916F00282FB7
:1022900030E080918300909184002817390729F459
:1022A00084E062E040E00E94520780917000282F95
:1022B00030E080918300909184002817390729F439
:1022C00084E063E040E00E94520780917100282F73
:1022D00030E080918300909184002817390729F419
:1022E00081E060E040E00E94520780917200282F58
:1022F00030E080918300909184002817390729F4F9
:1023000081E061E040E00E94520780917300282F35
:1023100030E080918300909184002817390729F4D8
:1023200081E062E040E00E94520780917400282F13
:1023300030E080918300909184002817390729F4B8
:1023400081E063E040E00E94520780918300909119
:102350008400803A910509F040C084E064E041E0E7
:102360000E94520784E065E041E00E94520784E049
:1023700066E041E00E94520783E060E041E00E9495
:10238000520783E061E041E00E94520783E062E08F
:1023900041E00E94520784E062E041E00E9452075F
:1023A00084E063E041E00E94520781E060E041E0A8
:1023B0000E94520781E061E041E00E94520781E003
:1023C00062E041E00E94520781E063E041E00E9448
:1023D00052071092840010928300CF91DF910895EC
:1023E0000F931F93DF93CF93CDB7DEB7CE58D34073
:1023F0000FB6F894DEBF0FBECDBF8AE080936900B0
:102400008DE080936A008FE080936B008EE0809374
:102410006C008DE080936D008FE080936E008DE006
:1024200080936F008DE0809370008FE08093710047
:102430008DE0809372008DE0809373008FE0809335
:102440007400FE01E557FC4F80E090E0AAEFB3E492
:1024500080839183A283B3838E0109571C4FFE01B1
:10246000E557FC4F608171818281938120E030E0EB
:102470004AE755E40E941F02DC01CB01F80180838A
:102480009183A283B383FE01E957FC4F6081718180
:102490008281938120E030E040E85FE30E9479038D
:1024A000882344F4FE01EB57FC4F81E090E09183D8
:1024B000808364C0FE01E957FC4F60817181828195
:1024C000938120E03FEF4FE757E40E94190318166D
:1024D0000CF043C0FE01E557FC4F608171818281A1
:1024E000938120E030E040E251E40E941F02DC01D1
:1024F000CB018E010B571C4FBC01CD010E9449003E
:10250000DC01CB01F801918380831FC0FE01ED57F0
:10251000FC4F80E991E091838083FE01ED57FC4FF1
:10252000808191810197F1F7FE01ED57FC4F918376
:102530008083DE01AB57BC4FFE01EB57FC4F80811F
:102540009181019711969C938E93FE01EB57FC4F5E
:10255000808191810097D1F627C08E010B571C4FC7
:10256000FE01E957FC4F60817181828193810E9455
:102570004900DC01CB01F80191838083DE01AF5774
:10258000BC4FFE01EB57FC4F808191818D939C9352
:10259000FE01EF57FC4F808191810197F1F7FE0119
:1025A000EF57FC4F918380838CE080936A00FE019B
:1025B000E358FC4F80E090E0ACE8B2E48083918384
:1025C000A283B3838E0107581C4FFE01E358FC4FD2
:1025D000608171818281938120E030E04AE755E497
:1025E0000E941F02DC01CB01F80180839183A2834A
:1025F000B383FE01E758FC4F608171818281938132
:1026000020E030E040E85FE30E947903882344F44F
:10261000FE01E958FC4F81E090E09183808364C023
:10262000FE01E758FC4F608171818281938120E037
:102630003FEF4FE757E40E94190318160CF043C010
:10264000FE01E358FC4F608171818281938120E01B
:1026500030E040E251E40E941F02DC01CB018E0118
:1026600009581C4FBC01CD010E944900DC01CB017F
:10267000F801918380831FC0FE01EB58FC4F80E975
:1026800091E091838083FE01EB58FC4F8081918122
:102690000197F1F7FE01EB58FC4F91838083DE0137
:1026A000A958BC4FFE01E958FC4F808191810197E8
:1026B00011969C938E93FE01E958FC4F8081918185
:1026C0000097D1F627C08E0109581C4FFE01E7582C
:1026D000FC4F60817181828193810E944900DC01FD
:1026E000CB01F80191838083DE01AD58BC4FFE0120
:1026F000E958FC4F808191818D939C93FE01ED58A8
:10270000FC4F808191810197F1F7FE01ED58FC4F5C
:10271000918380838BE080936A00FE01E159FC4F36
:1027200080E090E0ACE8B2E480839183A283B3833D
:102730008E0105591C4FFE01E159FC4F60817181EA
:102740008281938120E030E04AE755E40E941F0235
:10275000DC01CB01F80180839183A283B383FE0166
:10276000E559FC4F608171818281938120E030E0E6
:1027700040E85FE30E947903882344F4FE01E759AF
:10278000FC4F81E090E09183808364C0FE01E559B5
:10279000FC4F608171818281938120E03FEF4FE7A0
:1027A00057E40E94190318160CF043C0FE01E159CA
:1027B000FC4F608171818281938120E030E040E2B2
:1027C00051E40E941F02DC01CB018E0107591C4F0E
:1027D000BC01CD010E944900DC01CB01F8019183CD
:1027E00080831FC0FE01E959FC4F80E991E091838D
:1027F0008083FE01E959FC4F808191810197F1F7B7
:10280000FE01E959FC4F91838083DE01A759BC4F3B
:10281000FE01E759FC4F80819181019711969C93AD
:102820008E93FE01E759FC4F808191810097D1F68C
:1028300027C08E0107591C4FFE01E559FC4F6081EE
:102840007181828193810E944900DC01CB01F801F2
:1028500091838083DE01AB59BC4FFE01E759FC4FE9
:10286000808191818D939C93FE01EB59FC4F808177
:1028700091810197F1F7FE01EB59FC4F9183808321
:102880008AE080936A00FE01EF59FC4F80E090E0FF
:10289000ACE8B2E480839183A283B3838E01035AB0
:1028A0001C4FFE01EF59FC4F608171818281938141
:1028B00020E030E04AE755E40E941F02DC01CB0132
:1028C000F80180839183A283B383FE01E35AFC4F16
:1028D000608171818281938120E030E040E85FE394
:1028E0000E947903882344F4FE01E55AFC4F81E0FD
:1028F00090E09183808364C0FE01E35AFC4F6081C5
:1029000071818281938120E03FEF4FE757E40E947D
:10291000190318160CF043C0FE01EF59FC4F6081FB
:1029200071818281938120E030E040E251E40E9495
:102930001F02DC01CB018E01055A1C4FBC01CD01E9
:102940000E944900DC01CB01F801918380831FC004
:10295000FE01E75AFC4F80E991E091838083FE01FC
:10296000E75AFC4F808191810197F1F7FE01E75A08
:10297000FC4F91838083DE01A55ABC4FFE01E55ACE
:10298000FC4F80819181019711969C938E93FE015B
:10299000E55AFC4F808191810097D1F627C08E01C6
:1029A000055A1C4FFE01E35AFC4F60817181828100
:1029B00093810E944900DC01CB01F801918380835F
:1029C000DE01A95ABC4FFE01E55AFC4F808191817E
:1029D0008D939C93FE01E95AFC4F80819181019770
:1029E000F1F7FE01E95AFC4F9183808389E08093DF
:1029F0006A008EE080936B00FE01ED5AFC4F80E090
:102A000090E0ACE8B2E480839183A283B3838E012B
:102A1000015B1C4FFE01ED5AFC4F60817181828188
:102A2000938120E030E04AE755E40E941F02DC0178
:102A3000CB01F80180839183A283B383FE01E15B24
:102A4000FC4F608171818281938120E030E040E819
:102A50005FE30E947903882344F4FE01E35BFC4FAB
:102A600081E090E09183808364C0FE01E15BFC4FD4
:102A7000608171818281938120E03FEF4FE757E4CD
:102A80000E94190318160CF043C0FE01ED5AFC4FCA
:102A9000608171818281938120E030E040E251E4E5
:102AA0000E941F02DC01CB018E01035B1C4FBC01A5
:102AB000CD010E944900DC01CB01F80191838083A4
:102AC0001FC0FE01E55BFC4F80E991E091838083AC
:102AD000FE01E55BFC4F808191810197F1F7FE01DA
:102AE000E55BFC4F91838083DE01A35BBC4FFE015D
:102AF000E35BFC4F80819181019711969C938E93AB
:102B0000FE01E35BFC4F808191810097D1F627C0E5
:102B10008E01035B1C4FFE01E15BFC4F6081718104
:102B2000828193810E944900DC01CB01F8019183ED
:102B30008083DE01A75BBC4FFE01E35BFC4F80811D
:102B400091818D939C93FE01E75BFC4F8081918185
:102B50000197F1F7FE01E75BFC4F918380838DE0E5
:102B600080936B00FE01EB5BFC4F80E090E0ACE8F3
:102B7000B2E480839183A283B3838E010F5B1C4FE9
:102B8000FE01EB5BFC4F608171818281938120E0CB
:102B900030E04AE755E40E941F02DC01CB01F80156
:102BA00080839183A283B383FE01EF5BFC4F60813E
:102BB00071818281938120E030E040E85FE30E94F0
:102BC0007903882344F4FE01E15CFC4F81E090E04E
:102BD0009183808364C0FE01EF5BFC4F6081718153
:102BE0008281938120E03FEF4FE757E40E94190371
:102BF00018160CF043C0FE01EB5BFC4F6081718145
:102C00008281938120E030E040E251E40E941F0283
:102C1000DC01CB018E01015C1C4FBC01CD010E9487
:102C20004900DC01CB01F801918380831FC0FE01C4
:102C3000E35CFC4F80E991E091838083FE01E35CDB
:102C4000FC4F808191810197F1F7FE01E35CFC4F1D
:102C500091838083DE01A15CBC4FFE01E15CFC4FEF
:102C600080819181019711969C938E93FE01E15C86
:102C7000FC4F808191810097D1F627C08E01015CC5
:102C80001C4FFE01EF5BFC4F60817181828193815B
:102C90000E944900DC01CB01F80191838083DE01B1
:102CA000A55CBC4FFE01E15CFC4F808191818D935E
:102CB0009C93FE01E55CFC4F808191810197F1F7C7
:102CC000FE01E55CFC4F918380838CE080936B0078
:102CD000FE01E95CFC4F80E090E0ACE8B2E4808368
:102CE0009183A283B3838E010D5C1C4FFE01E95CCE
:102CF000FC4F608171818281938120E030E04AE75E
:102D000055E40E941F02DC01CB01F801808391830E
:102D1000A283B383FE01ED5CFC4F608171818281EF
:102D2000938120E030E040E85FE30E94790388234C
:102D300044F4FE01EF5CFC4F81E090E091838083DE
:102D400064C0FE01ED5CFC4F6081718182819381E2
:102D500020E03FEF4FE757E40E94190318160CF0EC
:102D600043C0FE01E95CFC4F6081718182819381E7
:102D700020E030E040E251E40E941F02DC01CB0180
:102D80008E010F5C1C4FBC01CD010E944900DC018B
:102D9000CB01F801918380831FC0FE01E15DFC4FF0
:102DA00080E991E091838083FE01E15DFC4F8081A9
:102DB00091810197F1F7FE01E15DFC4F91838083E2
:102DC000DE01AF5CBC4FFE01EF5CFC4F8081918166
:102DD000019711969C938E93FE01EF5CFC4F8081CE
:102DE00091810097D1F627C08E010F5C1C4FFE0128
:102DF000ED5CFC4F60817181828193810E9449006A
:102E0000DC01CB01F80191838083DE01A35DBC4F1F
:102E1000FE01EF5CFC4F808191818D939C93FE01BC
:102E2000E35DFC4F808191810197F1F7FE01E35D45
:102E3000FC4F918380838BE080936B00FE01E75D04
:102E4000FC4F80E090E0ACE8B2E480839183A28301
:102E5000B3838E010B5D1C4FFE01E75DFC4F60816B
:102E600071818281938120E030E04AE755E40E943D
:102E70001F02DC01CB01F80180839183A283B3831D
:102E8000FE01EB5DFC4F608171818281938120E0C6
:102E900030E040E85FE30E947903882344F4FE01B8
:102EA000ED5DFC4F81E090E09183808364C0FE0182
:102EB000EB5DFC4F608171818281938120E03FEF67
:102EC0004FE757E40E94190318160CF043C0FE01A7
:102ED000E75DFC4F608171818281938120E030E069
:102EE00040E251E40E941F02DC01CB018E010D5D26
:102EF0001C4FBC01CD010E944900DC01CB01F8014F
:102F0000918380831FC0FE01EF5DFC4F80E991E05B
:102F100091838083FE01EF5DFC4F80819181019759
:102F2000F1F7FE01EF5DFC4F91838083DE01AD5D23
:102F3000BC4FFE01ED5DFC4F8081918101971196A0
:102F40009C938E93FE01ED5DFC4F808191810097F3
:102F5000D1F627C08E010D5D1C4FFE01EB5DFC4FCD
:102F600060817181828193810E944900DC01CB01E3
:102F7000F80191838083DE01A15EBC4FFE01ED5D0F
:102F8000FC4F808191818D939C93FE01E15EFC4F0B
:102F9000808191810197F1F7FE01E15EFC4F918301
:102FA00080838AE080936B00FE01E55EFC4F80E049
:102FB00090E0AAEFB3E480839183A283B3838E0170
:102FC000095E1C4FFE01E55EFC4F608171818281CC
:102FD000938120E030E04AE755E40E941F02DC01C3
:102FE000CB01F80180839183A283B383FE01E95E64
:102FF000FC4F608171818281938120E030E040E864
:103000005FE30E947903882344F4FE01EB5EFC4FEA
:1030100081E090E09183808364C0FE01E95EFC4F13
:10302000608171818281938120E03FEF4FE757E417
:103030000E94190318160CF043C0FE01E55EFC4F18
:10304000608171818281938120E030E040E251E42F
:103050000E941F02DC01CB018E010B5E1C4FBC01E4
:10306000CD010E944900DC01CB01F80191838083EE
:103070001FC0FE01ED5EFC4F80E991E091838083EB
:10308000FE01ED5EFC4F808191810197F1F7FE0119
:10309000ED5EFC4F91838083DE01AB5EBC4FFE0191
:1030A000EB5EFC4F80819181019711969C938E93EA
:1030B000FE01EB5EFC4F808191810097D1F627C025
:1030C0008E010B5E1C4FFE01E95EFC4F6081718139
:1030D000828193810E944900DC01CB01F801918338
:1030E0008083DE01AF5EBC4FFE01EB5EFC4F808152
:1030F00091818D939C93FE01EF5EFC4F80819181C5
:103100000197F1F7FE01EF5EFC4F918380838BE026
:1031100080936900FE01E35FFC4F80E090E0ACE843
:10312000B2E480839183A283B3838E01075F1C4F37
:10313000FE01E35FFC4F608171818281938120E019
:1031400030E04AE755E40E941F02DC01CB01F801A0
:1031500080839183A283B383FE01E75FFC4F60818C
:1031600071818281938120E030E040E85FE30E943A
:103170007903882344F4FE01E95FFC4F81E090E08D
:103180009183808364C0FE01E75FFC4F60817181A1
:103190008281938120E03FEF4FE757E40E941903BB
:1031A00018160CF043C0FE01E35FFC4F6081718193
:1031B0008281938120E030E040E251E40E941F02CE
:1031C000DC01CB018E01095F1C4FBC01CD010E94C7
:1031D0004900DC01CB01F801918380831FC0FE010F
:1031E000EB5FFC4F80E991E091838083FE01EB5F10
:1031F000FC4F808191810197F1F7FE01EB5FFC4F5D
:1032000091838083DE01A95FBC4FFE01E95FFC4F23
:1032100080819181019711969C938E93FE01E95FC5
:10322000FC4F808191810097D1F627C08E01095F04
:103230001C4FFE01E75FFC4F6081718182819381A9
:103240000E944900DC01CB01F80191838083DE01FB
:10325000AD5FBC4FFE01E95FFC4F808191818D9392
:103260009C93FE01ED5FFC4F808191810197F1F706
:10327000FE01ED5FFC4F918380838CE080936900B9
:10328000FE01E150FD4F80E090E0ACE8B2E48083C5
:103290009183A283B3838E0105501D4FFE01E1503F
:1032A000FD4F608171818281938120E030E04AE7A7
:1032B00055E40E941F02DC01CB01F8018083918359
:1032C000A283B383FE01E550FD4F6081718182814D
:1032D000938120E030E040E85FE30E947903882397
:1032E00044F4FE01E750FD4F81E090E0918380833C
:1032F00064C0FE01E550FD4F608171818281938140
:1033000020E03FEF4FE757E40E94190318160CF036
:1033100043C0FE01E150FD4F608171818281938144
:1033200020E030E040E251E40E941F02DC01CB01CA
:103330008E0107501D4FBC01CD010E944900DC01E8
:10334000CB01F801918380831FC0FE01E950FD4F3E
:1033500080E991E091838083FE01E950FD4F8081F7
:1033600091810197F1F7FE01E950FD4F9183808330
:10337000DE01A750BD4FFE01E750FD4F80819181D6
:10338000019711969C938E93FE01E750FD4F80812B
:1033900091810097D1F627C08E0107501D4FFE0185
:1033A000E550FD4F60817181828193810E944900C7
:1033B000DC01CB01F80191838083DE01AB50BD4F6E
:1033C000FE01E750FD4F808191818D939C93FE011A
:1033D000EB50FD4F808191810197F1F7FE01EB5099
:1033E000FD4F918380838DE080936900FE01EF5053
:1033F000FD4F80E090E0AAEFB3E480839183A28345
:10340000B3838E0103511D4FFE01EF50FD4F6081CC
:1034100071818281938120E030E04AE755E40E9487
:103420001F02DC01CB01F80180839183A283B38367
:10343000FE01E351FD4F608171818281938120E023
:1034400030E040E85FE30E947903882344F4FE0102
:10345000E551FD4F81E090E09183808364C0FE01DF
:10346000E351FD4F608171818281938120E03FEFC4
:103470004FE757E40E94190318160CF043C0FE01F1
:10348000EF50FD4F608171818281938120E030E0B7
:1034900040E251E40E941F02DC01CB018E01055184
:1034A0001D4FBC01CD010E944900DC01CB01F80198
:1034B000918380831FC0FE01E751FD4F80E991E0B9
:1034C00091838083FE01E751FD4F808191810197B7
:1034D000F1F7FE01E751FD4F91838083DE01A55195
:1034E000BD4FFE01E551FD4F8081918101971196FD
:1034F0009C938E93FE01E551FD4F80819181009751
:10350000D1F627C08E0105511D4FFE01E351FD4F3D
:1035100060817181828193810E944900DC01CB012D
:10352000F80191838083DE01A951BD4FFE01E55171
:10353000FD4F808191818D939C93FE01E951FD4F58
:10354000808191810197F1F7FE01E951FD4F91834F
:1035500080838BE080936B00FE01ED51FD4F80E096
:1035600090E0ACE8B2E480839183A283B3838E01C0
:1035700001521D4FFE01ED51FD4F6081718182812D
:10358000938120E030E04AE755E40E941F02DC010D
:10359000CB01F80180839183A283B383FE01E152C2
:1035A000FD4F608171818281938120E030E040E8AD
:1035B0005FE30E947903882344F4FE01E352FD4F48
:1035C00081E090E09183808364C0FE01E152FD4F71
:1035D000608171818281938120E03FEF4FE757E462
:1035E0000E94190318160CF043C0FE01ED51FD4F67
:1035F000608171818281938120E030E040E251E47A
:103600000E941F02DC01CB018E0103521D4FBC0141
:10361000CD010E944900DC01CB01F8019183808338
:103620001FC0FE01E552FD4F80E991E09183808348
:10363000FE01E552FD4F808191810197F1F7FE0176
:10364000E552FD4F91838083DE01A352BD4FFE0101
:10365000E352FD4F80819181019711969C938E9347
:10366000FE01E352FD4F808191810097D1F627C082
:103670008E0103521D4FFE01E152FD4F60817181A9
:10368000828193810E944900DC01CB01F801918382
:103690008083DE01A752BD4FFE01E352FD4F8081C2
:1036A00091818D939C93FE01E752FD4F8081918122
:1036B0000197F1F7FE01E752FD4F918380838CE083
:1036C00080936B00FE01EB52FD4F80E090E0ACE890
:1036D000B2E480839183A283B3838E010F521D4F86
:1036E000FE01EB52FD4F608171818281938120E068
:1036F00030E04AE755E40E941F02DC01CB01F801EB
:1037000080839183A283B383FE01EF52FD4F6081DA
:1037100071818281938120E030E040E85FE30E9484
:103720007903882344F4FE01E153FD4F81E090E0EA
:103730009183808364C0FE01EF52FD4F60817181EF
:103740008281938120E03FEF4FE757E40E94190305
:1037500018160CF043C0FE01EB52FD4F60817181E1
:103760008281938120E030E040E251E40E941F0218
:10377000DC01CB018E0101531D4FBC01CD010E9424
:103780004900DC01CB01F801918380831FC0FE0159
:10379000E353FD4F80E991E091838083FE01E35381
:1037A000FD4F808191810197F1F7FE01E353FD4FB9
:1037B00091838083DE01A153BD4FFE01E153FD4F94
:1037C00080819181019711969C938E93FE01E15324
:1037D000FD4F808191810097D1F627C08E01015362
:1037E0001D4FFE01EF52FD4F6081718182819381F7
:1037F0000E944900DC01CB01F80191838083DE0146
:10380000A553BD4FFE01E153FD4F808191818D9302
:103810009C93FE01E553FD4F808191810197F1F763
:10382000FE01E553FD4F918380838DE080936B0013
:10383000FE01E953FD4F80E090E0ACE8B2E4808304
:103840009183A283B3838E010D531D4FFE01E95373
:10385000FD4F608171818281938120E030E04AE7F1
:1038600055E40E941F02DC01CB01F80180839183A3
:10387000A283B383FE01ED53FD4F6081718182818C
:10388000938120E030E040E85FE30E9479038823E1
:1038900044F4FE01EF53FD4F81E090E0918380837B
:1038A00064C0FE01ED53FD4F60817181828193817F
:1038B00020E03FEF4FE757E40E94190318160CF081
:1038C00043C0FE01E953FD4F608171818281938184
:1038D00020E030E040E251E40E941F02DC01CB0115
:1038E0008E010F531D4FBC01CD010E944900DC0128
:1038F000CB01F801918380831FC0FE01E154FD4F8D
:1039000080E991E091838083FE01E154FD4F808145
:1039100091810197F1F7FE01E154FD4F918380837E
:10392000DE01AF53BD4FFE01EF53FD4F808191810A
:10393000019711969C938E93FE01EF53FD4F80816A
:1039400091810097D1F627C08E010F531D4FFE01C4
:10395000ED53FD4F60817181828193810E94490006
:10396000DC01CB01F80191838083DE01A354BD4FBC
:10397000FE01EF53FD4F808191818D939C93FE0159
:10398000E354FD4F808191810197F1F7FE01E354EB
:10399000FD4F918380838EE080936B00FE01E7549E
:1039A000FD4F80E090E0ACE8B2E480839183A28395
:1039B000B3838E010B541D4FFE01E754FD4F608110
:1039C00071818281938120E030E04AE755E40E94D2
:1039D0001F02DC01CB01F80180839183A283B383B2
:1039E000FE01EB54FD4F608171818281938120E063
:1039F00030E040E85FE30E947903882344F4FE014D
:103A0000ED54FD4F81E090E09183808364C0FE011E
:103A1000EB54FD4F608171818281938120E03FEF03
:103A20004FE757E40E94190318160CF043C0FE013B
:103A3000E754FD4F608171818281938120E030E005
:103A400040E251E40E941F02DC01CB018E010D54C3
:103A50001D4FBC01CD010E944900DC01CB01F801E2
:103A6000918380831FC0FE01EF54FD4F80E991E0F8
:103A700091838083FE01EF54FD4F808191810197F6
:103A8000F1F7FE01EF54FD4F91838083DE01AD54C9
:103A9000BD4FFE01ED54FD4F80819181019711963C
:103AA0009C938E93FE01ED54FD4F80819181009790
:103AB000D1F627C08E010D541D4FFE01EB54FD4F72
:103AC00060817181828193810E944900DC01CB0178
:103AD000F80191838083DE01A155BD4FFE01ED54B5
:103AE000FD4F808191818D939C93FE01E155FD4FA7
:103AF000808191810197F1F7FE01E155FD4F91839E
:103B000080838FE080936B008AE080936A00FE01DF
:103B1000E555FD4F80E090E0ACE8B2E4808391830E
:103B2000A283B3838E0109551D4FFE01E555FD4F5C
:103B3000608171818281938120E030E04AE755E421
:103B40000E941F02DC01CB01F80180839183A283D4
:103B5000B383FE01E955FD4F6081718182819381BC
:103B600020E030E040E85FE30E947903882344F4DA
:103B7000FE01EB55FD4F81E090E09183808364C0AE
:103B8000FE01E955FD4F608171818281938120E0C2
:103B90003FEF4FE757E40E94190318160CF043C09B
:103BA000FE01E555FD4F608171818281938120E0A6
:103BB00030E040E251E40E941F02DC01CB018E01A3
:103BC0000B551D4FBC01CD010E944900DC01CB010A
:103BD000F801918380831FC0FE01ED55FD4F80E900
:103BE00091E091838083FE01ED55FD4F80819181AD
:103BF0000197F1F7FE01ED55FD4F91838083DE01C2
:103C0000AB55BD4FFE01EB55FD4F80819181019772
:103C100011969C938E93FE01EB55FD4F808191810F
:103C20000097D1F627C08E010B551D4FFE01E955B7
:103C3000FD4F60817181828193810E944900DC0186
:103C4000CB01F80191838083DE01AF55BD4FFE01AA
:103C5000EB55FD4F808191818D939C93FE01EF5533
:103C6000FD4F808191810197F1F7FE01EF55FD4FE6
:103C7000918380838BE080936A00FE01E356FD4FC1
:103C800080E090E0ACE8B2E480839183A283B383C8
:103C90008E0107561D4FFE01E356FD4F6081718175
:103CA0008281938120E030E04AE755E40E941F02C0
:103CB000DC01CB01F80180839183A283B383FE01F1
:103CC000E756FD4F608171818281938120E030E071
:103CD00040E85FE30E947903882344F4FE01E9563B
:103CE000FD4F81E090E09183808364C0FE01E75640
:103CF000FD4F608171818281938120E03FEF4FE72A
:103D000057E40E94190318160CF043C0FE01E35655
:103D1000FD4F608171818281938120E030E040E23B
:103D200051E40E941F02DC01CB018E0109561D4F98
:103D3000BC01CD010E944900DC01CB01F801918357
:103D400080831FC0FE01EB56FD4F80E991E0918317
:103D50008083FE01EB56FD4F808191810197F1F741
:103D6000FE01EB56FD4F91838083DE01A956BD4FC6
:103D7000FE01E956FD4F80819181019711969C9338
:103D80008E93FE01E956FD4F808191810097D1F617
:103D900027C08E0109561D4FFE01E756FD4F608179
:103DA0007181828193810E944900DC01CB01F8017D
:103DB00091838083DE01AD56BD4FFE01E956FD4F74
:103DC000808191818D939C93FE01ED56FD4F808102
:103DD00091810197F1F7FE01ED56FD4F91838083AC
:103DE0008CE080936A00FE01E157FD4F80E090E097
:103DF000ACE8B2E480839183A283B3838E0105573C
:103E00001D4FFE01E157FD4F6081718182819381D9
:103E100020E030E04AE755E40E941F02DC01CB01BC
:103E2000F80180839183A283B383FE01E557FD4FA0
:103E3000608171818281938120E030E040E85FE31E
:103E40000E947903882344F4FE01E757FD4F81E087
:103E500090E09183808364C0FE01E557FD4F60814F
:103E600071818281938120E03FEF4FE757E40E9408
:103E7000190318160CF043C0FE01E157FD4F608195
:103E800071818281938120E030E040E251E40E9420
:103E90001F02DC01CB018E0107571D4FBC01CD0174
:103EA0000E944900DC01CB01F801918380831FC08F
:103EB000FE01E957FD4F80E991E091838083FE0187
:103EC000E957FD4F808191810197F1F7FE01E95794
:103ED000FD4F91838083DE01A757BD4FFE01E75759
:103EE000FD4F80819181019711969C938E93FE01E5
:103EF000E757FD4F808191810097D1F627C08E0151
:103F000007571D4FFE01E557FD4F6081718182818A
:103F100093810E944900DC01CB01F80191838083E9
:103F2000DE01AB57BD4FFE01E757FD4F8081918108
:103F30008D939C93FE01EB57FD4F808191810197FA
:103F4000F1F7FE01EB57FD4F918380838DE0809365
:103F50006A00FE01EF57FD4F80E090E0AAEFB3E466
:103F600080839183A283B3838E0103581D4FFE018A
:103F7000EF57FD4F608171818281938120E030E0B5
:103F80004AE755E40E941F02DC01CB01F80180835F
:103F90009183A283B383FE01E358FD4F6081718159
:103FA0008281938120E030E040E85FE30E94790362
:103FB000882344F4FE01E558FD4F81E090E09183B1
:103FC000808364C0FE01E358FD4F6081718182816E
:103FD000938120E03FEF4FE757E40E941903181642
:103FE0000CF043C0FE01EF57FD4F6081718182816B
:103FF000938120E030E040E251E40E941F02DC01A6
:10400000CB018E0105581D4FBC01CD010E94490016
:10401000DC01CB01F801918380831FC0FE01E758CA
:10402000FD4F80E991E091838083FE01E758FD4FC9
:10403000808191810197F1F7FE01E758FD4F91834F
:104040008083DE01A558BD4FFE01E558FD4F8081FC
:104050009181019711969C938E93FE01E558FD4F37
:10406000808191810097D1F627C08E0105581D4FA0
:10407000FE01E358FD4F60817181828193810E942E
:104080004900DC01CB01F80191838083DE01A9584E
:10409000BD4FFE01E558FD4F808191818D939C932A
:1040A000FE01E958FD4F808191810197F1F7FE01F2
:1040B000E958FD4F918380838CE080937300FE016B
:1040C000ED58FD4F80E090E0ACE8B2E4808391834E
:1040D000A283B3838E0101591D4FFE01ED58FD4FA0
:1040E000608171818281938120E030E04AE755E46C
:1040F0000E941F02DC01CB01F80180839183A2831F
:10410000B383FE01E159FD4F60817181828193810A
:1041100020E030E040E85FE30E947903882344F424
:10412000FE01E359FD4F81E090E09183808364C0FC
:10413000FE01E159FD4F608171818281938120E010
:104140003FEF4FE757E40E94190318160CF043C0E5
:10415000FE01ED58FD4F608171818281938120E0E5
:1041600030E040E251E40E941F02DC01CB018E01ED
:1041700003591D4FBC01CD010E944900DC01CB0158
:10418000F801918380831FC0FE01E559FD4F80E94E
:1041900091E091838083FE01E559FD4F80819181FB
:1041A0000197F1F7FE01E559FD4F91838083DE0110
:1041B000A359BD4FFE01E359FD4F808191810197C5
:1041C00011969C938E93FE01E359FD4F808191815E
:1041D0000097D1F627C08E0103591D4FFE01E1590A
:1041E000FD4F60817181828193810E944900DC01D1
:1041F000CB01F80191838083DE01A759BD4FFE01F9
:10420000E359FD4F808191818D939C93FE01E75985
:10421000FD4F808191810197F1F7FE01E759FD4F34
:10422000918380838BE080937300FE01EB59FD4FF7
:1042300080E090E0ACE8B2E480839183A283B38312
:104240008E010F591D4FFE01EB59FD4F60817181A9
:104250008281938120E030E04AE755E40E941F020A
:10426000DC01CB01F80180839183A283B383FE013B
:10427000EF59FD4F608171818281938120E030E0B0
:1042800040E85FE30E947903882344F4FE01E15A89
:10429000FD4F81E090E09183808364C0FE01EF597F
:1042A000FD4F608171818281938120E03FEF4FE774
:1042B00057E40E94190318160CF043C0FE01EB5995
:1042C000FD4F608171818281938120E030E040E286
:1042D00051E40E941F02DC01CB018E01015A1D4FE7
:1042E000BC01CD010E944900DC01CB01F8019183A2
:1042F00080831FC0FE01E35AFD4F80E991E0918366
:104300008083FE01E35AFD4F808191810197F1F78F
:10431000FE01E35AFD4F91838083DE01A15ABD4F18
:10432000FE01E15AFD4F80819181019711969C9386
:104330008E93FE01E15AFD4F808191810097D1F665
:1043400027C08E01015A1D4FFE01EF59FD4F6081BC
:104350007181828193810E944900DC01CB01F801C7
:1043600091838083DE01A55ABD4FFE01E15AFD4FC6
:10437000808191818D939C93FE01E55AFD4F808150
:1043800091810197F1F7FE01E55AFD4F91838083FA
:104390008AE080937300FE01E95AFD4F80E090E0CF
:1043A000ACE8B2E480839183A283B3838E010D5A7B
:1043B0001D4FFE01E95AFD4F608171818281938119
:1043C00020E030E04AE755E40E941F02DC01CB0107
:1043D000F80180839183A283B383FE01ED5AFD4FE0
:1043E000608171818281938120E030E040E85FE369
:1043F0000E947903882344F4FE01EF5AFD4F81E0C7
:1044000090E09183808364C0FE01ED5AFD4F60818E
:1044100071818281938120E03FEF4FE757E40E9452
:10442000190318160CF043C0FE01E95AFD4F6081D4
:1044300071818281938120E030E040E251E40E946A
:104440001F02DC01CB018E010F5A1D4FBC01CD01B3
:104450000E944900DC01CB01F801918380831FC0D9
:10446000FE01E15BFD4F80E991E091838083FE01D5
:10447000E15BFD4F808191810197F1F7FE01E15BE6
:10448000FD4F91838083DE01AF5ABD4FFE01EF5A8D
:10449000FD4F80819181019711969C938E93FE012F
:1044A000EF5AFD4F808191810097D1F627C08E0190
:1044B0000F5A1D4FFE01ED5AFD4F608171818281BF
:1044C00093810E944900DC01CB01F8019183808334
:1044D000DE01A35BBD4FFE01EF5AFD4F808191814C
:1044E0008D939C93FE01E35BFD4F80819181019749
:1044F000F1F7FE01E35BFD4F9183808389E08093B8
:1045000073008EE080937400FE01E75BFD4F80E056
:1045100090E0ACE8B2E480839183A283B3838E0100
:104520000B5B1D4FFE01E75BFD4F60817181828156
:10453000938120E030E04AE755E40E941F02DC014D
:10454000CB01F80180839183A283B383FE01EB5BEF
:10455000FD4F608171818281938120E030E040E8ED
:104560005FE30E947903882344F4FE01ED5BFD4F75
:1045700081E090E09183808364C0FE01EB5BFD4F9E
:10458000608171818281938120E03FEF4FE757E4A2
:104590000E94190318160CF043C0FE01E75BFD4FA3
:1045A000608171818281938120E030E040E251E4BA
:1045B0000E941F02DC01CB018E010D5B1D4FBC016F
:1045C000CD010E944900DC01CB01F8019183808379
:1045D0001FC0FE01EF5BFD4F80E991E09183808376
:1045E000FE01EF5BFD4F808191810197F1F7FE01A4
:1045F000EF5BFD4F91838083DE01AD5BBD4FFE011C
:10460000ED5BFD4F80819181019711969C938E9374
:10461000FE01ED5BFD4F808191810097D1F627C0AF
:104620008E010D5B1D4FFE01EB5BFD4F60817181C3
:10463000828193810E944900DC01CB01F8019183C2
:104640008083DE01A15CBD4FFE01ED5BFD4F8081EB
:1046500091818D939C93FE01E15CFD4F808191815E
:104660000197F1F7FE01E15CFD4F918380838DE0BE
:1046700080937400FE01E55CFD4F80E090E0ACE8C3
:10468000B2E480839183A283B3838E01095C1D4FC2
:10469000FE01E55CFD4F608171818281938120E0A4
:1046A00030E04AE755E40E941F02DC01CB01F8012B
:1046B00080839183A283B383FE01E95CFD4F608117
:1046C00071818281938120E030E040E85FE30E94C5
:1046D0007903882344F4FE01EB5CFD4F81E090E018
:1046E0009183808364C0FE01E95CFD4F608171812C
:1046F0008281938120E03FEF4FE757E40E94190346
:1047000018160CF043C0FE01E55CFD4F608171811D
:104710008281938120E030E040E251E40E941F0258
:10472000DC01CB018E010B5C1D4FBC01CD010E9451
:104730004900DC01CB01F801918380831FC0FE0199
:10474000ED5CFD4F80E991E091838083FE01ED5C9B
:10475000FD4F808191810197F1F7FE01ED5CFD4FE6
:1047600091838083DE01AB5CBD4FFE01EB5CFD4FAE
:1047700080819181019711969C938E93FE01EB5C51
:10478000FD4F808191810097D1F627C08E010B5C8F
:104790001D4FFE01E95CFD4F608171818281938133
:1047A0000E944900DC01CB01F80191838083DE0186
:1047B000AF5CBD4FFE01EB5CFD4F808191818D931D
:1047C0009C93FE01EF5CFD4F808191810197F1F791
:1047D000FE01EF5CFD4F918380838CE08093740039
:1047E000FE01E35DFD4F80E090E0ACE8B2E4808341
:1047F0009183A283B3838E01075D1D4FFE01E35DAC
:10480000FD4F608171818281938120E030E04AE731
:1048100055E40E941F02DC01CB01F80180839183E3
:10482000A283B383FE01E75DFD4F608171818281C8
:10483000938120E030E040E85FE30E947903882321
:1048400044F4FE01E95DFD4F81E090E091838083B7
:1048500064C0FE01E75DFD4F6081718182819381BB
:1048600020E03FEF4FE757E40E94190318160CF0C1
:1048700043C0FE01E35DFD4F6081718182819381C0
:1048800020E030E040E251E40E941F02DC01CB0155
:104890008E01095D1D4FBC01CD010E944900DC0164
:1048A000CB01F801918380831FC0FE01EB5DFD4FBA
:1048B00080E991E091838083FE01EB5DFD4F808173
:1048C00091810197F1F7FE01EB5DFD4F91838083AC
:1048D000DE01A95DBD4FFE01E95DFD4F8081918143
:1048E000019711969C938E93FE01E95DFD4F8081A7
:1048F00091810097D1F627C08E01095D1D4FFE0101
:10490000E75DFD4F60817181828193810E94490042
:10491000DC01CB01F80191838083DE01AD5DBD4FE9
:10492000FE01E95DFD4F808191818D939C93FE0195
:10493000ED5DFD4F808191810197F1F7FE01ED5D05
:10494000FD4F918380838BE080937400FE01E15ED4
:10495000FD4F80E090E0ACE8B2E480839183A283D5
:10496000B3838E01055E1D4FFE01E15EFD4F608148
:1049700071818281938120E030E04AE755E40E9412
:104980001F02DC01CB01F80180839183A283B383F2
:10499000FE01E55EFD4F608171818281938120E09F
:1049A00030E040E85FE30E947903882344F4FE018D
:1049B000E75EFD4F81E090E09183808364C0FE015B
:1049C000E55EFD4F608171818281938120E03FEF40
:1049D0004FE757E40E94190318160CF043C0FE017C
:1049E000E15EFD4F608171818281938120E030E042
:1049F00040E251E40E941F02DC01CB018E01075E00
:104A00001D4FBC01CD010E944900DC01CB01F80122
:104A1000918380831FC0FE01E95EFD4F80E991E034
:104A200091838083FE01E95EFD4F80819181019732
:104A3000F1F7FE01E95EFD4F91838083DE01A75E01
:104A4000BD4FFE01E75EFD4F808191810197119678
:104A50009C938E93FE01E75EFD4F808191810097CC
:104A6000D1F627C08E01075E1D4FFE01E55EFD4FAA
:104A700060817181828193810E944900DC01CB01B8
:104A8000F80191838083DE01AB5EBD4FFE01E75EDE
:104A9000FD4F808191818D939C93FE01EB5EFD4FD4
:104AA000808191810197F1F7FE01EB5EFD4F9183CB
:104AB00080838AE080937400FE01EF5EFD4F80E00A
:104AC00090E0AAEFB3E480839183A283B3838E0145
:104AD000035F1D4FFE01EF5EFD4F6081718182819A
:104AE000938120E030E04AE755E40E941F02DC0198
:104AF000CB01F80180839183A283B383FE01E35F3E
:104B0000FD4F608171818281938120E030E040E837
:104B10005FE30E947903882344F4FE01E55FFD4FC3
:104B200081E090E09183808364C0FE01E35FFD4FEC
:104B3000608171818281938120E03FEF4FE757E4EC
:104B40000E94190318160CF043C0FE01EF5EFD4FE2
:104B5000608171818281938120E030E040E251E404
:104B60000E941F02DC01CB018E01055F1D4FBC01BD
:104B7000CD010E944900DC01CB01F80191838083C3
:104B80001FC0FE01E75FFD4F80E991E091838083C4
:104B9000FE01E75FFD4F808191810197F1F7FE01F2
:104BA000E75FFD4F91838083DE01A55FBD4FFE016E
:104BB000E55FFD4F80819181019711969C938E93C3
:104BC000FE01E55FFD4F808191810097D1F627C0FE
:104BD0008E01055F1D4FFE01E35FFD4F6081718116
:104BE000828193810E944900DC01CB01F80191830D
:104BF0008083DE01A95FBD4FFE01E55FFD4F80812F
:104C000091818D939C93FE01E95FFD4F808191819D
:104C10000197F1F7FE01E95FFD4F918380838CE0FE
:104C200080937200FE01ED5FFD4F80E090E0ACE804
:104C3000B2E480839183A283B3838E0101501E4F1F
:104C4000FE01ED5FFD4F608171818281938120E0E3
:104C500030E04AE755E40E941F02DC01CB01F80175
:104C600080839183A283B383FE01E150FE4F608174
:104C700071818281938120E030E040E85FE30E940F
:104C80007903882344F4FE01E350FE4F81E090E075
:104C90009183808364C0FE01E150FE4F6081718189
:104CA0008281938120E03FEF4FE757E40E94190390
:104CB00018160CF043C0FE01ED5FFD4F608171815D
:104CC0008281938120E030E040E251E40E941F02A3
:104CD000DC01CB018E0103501E4FBC01CD010E94AF
:104CE0004900DC01CB01F801918380831FC0FE01E4
:104CF000E550FE4F80E991E091838083FE01E5500D
:104D0000FE4F808191810197F1F7FE01E550FE4F42
:104D100091838083DE01A350BE4FFE01E350FE4F1E
:104D200080819181019711969C938E93FE01E350AF
:104D3000FE4F808191810097D1F627C08E010350EC
:104D40001E4FFE01E150FE4F60817181828193818F
:104D50000E944900DC01CB01F80191838083DE01D0
:104D6000A750BE4FFE01E350FE4F808191818D938D
:104D70009C93FE01E750FE4F808191810197F1F7EE
:104D8000FE01E750FE4F918380838BE08093720099
:104D9000FE01EB50FE4F80E090E0ACE8B2E480838F
:104DA0009183A283B3838E010F501E4FFE01EB50FF
:104DB000FE4F608171818281938120E030E04AE77B
:104DC00055E40E941F02DC01CB01F801808391832E
:104DD000A283B383FE01EF50FE4F60817181828117
:104DE000938120E030E040E85FE30E94790388236C
:104DF00044F4FE01E151FE4F81E090E09183808315
:104E000064C0FE01EF50FE4F608171818281938109
:104E100020E03FEF4FE757E40E94190318160CF00B
:104E200043C0FE01EB50FE4F60817181828193810E
:104E300020E030E040E251E40E941F02DC01CB019F
:104E40008E0101511E4FBC01CD010E944900DC01C1
:104E5000CB01F801918380831FC0FE01E351FE4F17
:104E600080E991E091838083FE01E351FE4F8081D0
:104E700091810197F1F7FE01E351FE4F9183808309
:104E8000DE01A151BE4FFE01E151FE4F80819181B3
:104E9000019711969C938E93FE01E151FE4F808104
:104EA00091810097D1F627C08E0101511E4FFE015E
:104EB000EF50FE4F60817181828193810E94490091
:104EC000DC01CB01F80191838083DE01A551BE4F47
:104ED000FE01E151FE4F808191818D939C93FE01F3
:104EE000E551FE4F808191810197F1F7FE01E55177
:104EF000FE4F918380838AE080937200FE01E95126
:104F0000FE4F80E090E0AAEFB3E480839183A28318
:104F1000B3838E010D511E4FFE01E951FE4F60819A
:104F200071818281938120E030E04AE755E40E945C
:104F30001F02DC01CB01F80180839183A283B3833C
:104F4000FE01ED51FE4F608171818281938120E0ED
:104F500030E040E85FE30E947903882344F4FE01D7
:104F6000EF51FE4F81E090E09183808364C0FE01A9
:104F7000ED51FE4F608171818281938120E03FEF8E
:104F80004FE757E40E94190318160CF043C0FE01C6
:104F9000E951FE4F608171818281938120E030E090
:104FA00040E251E40E941F02DC01CB018E010F514F
:104FB0001E4FBC01CD010E944900DC01CB01F8016C
:104FC000918380831FC0FE01E152FE4F80E991E092
:104FD00091838083FE01E152FE4F80819181019790
:104FE000F1F7FE01E152FE4F91838083DE01AF5164
:104FF000BE4FFE01EF51FE4F8081918101971196C6
:105000009C938E93FE01EF51FE4F8081918100971A
:10501000D1F627C08E010F511E4FFE01ED51FE4FFC
:1050200060817181828193810E944900DC01CB0102
:10503000F80191838083DE01A352BE4FFE01EF5140
:10504000FE4F808191818D939C93FE01E352FE4F30
:10505000808191810197F1F7FE01E352FE4F918328
:1050600080838BE080937400FE01E752FE4F80E066
:1050700090E0ACE8B2E480839183A283B3838E0195
:105080000B521E4FFE01E752FE4F608171818281FB
:10509000938120E030E04AE755E40E941F02DC01E2
:1050A000CB01F80180839183A283B383FE01EB528D
:1050B000FE4F608171818281938120E030E040E881
:1050C0005FE30E947903882344F4FE01ED52FE4F12
:1050D00081E090E09183808364C0FE01EB52FE4F3B
:1050E000608171818281938120E03FEF4FE757E437
:1050F0000E94190318160CF043C0FE01E752FE4F40
:10510000608171818281938120E030E040E251E44E
:105110000E941F02DC01CB018E010D521E4FBC010B
:10512000CD010E944900DC01CB01F801918380830D
:105130001FC0FE01EF52FE4F80E991E09183808312
:10514000FE01EF52FE4F808191810197F1F7FE0140
:10515000EF52FE4F91838083DE01AD52BE4FFE01C0
:10516000ED52FE4F80819181019711969C938E9311
:10517000FE01ED52FE4F808191810097D1F627C04C
:105180008E010D521E4FFE01EB52FE4F6081718168
:10519000828193810E944900DC01CB01F801918357
:1051A0008083DE01A153BE4FFE01ED52FE4F808190
:1051B00091818D939C93FE01E153FE4F80819181FB
:1051C0000197F1F7FE01E153FE4F918380838CE05C
:1051D00080937400FE01E553FE4F80E090E0ACE860
:1051E000B2E480839183A283B3838E0109531E4F5F
:1051F000FE01E553FE4F608171818281938120E041
:1052000030E04AE755E40E941F02DC01CB01F801BF
:1052100080839183A283B383FE01E953FE4F6081B3
:1052200071818281938120E030E040E85FE30E9459
:105230007903882344F4FE01EB53FE4F81E090E0B4
:105240009183808364C0FE01E953FE4F60817181C8
:105250008281938120E03FEF4FE757E40E941903DA
:1052600018160CF043C0FE01E553FE4F60817181BA
:105270008281938120E030E040E251E40E941F02ED
:10528000DC01CB018E010B531E4FBC01CD010E94EE
:105290004900DC01CB01F801918380831FC0FE012E
:1052A000ED53FE4F80E991E091838083FE01ED5341
:1052B000FE4F808191810197F1F7FE01ED53FE4F82
:1052C00091838083DE01AB53BE4FFE01EB53FE4F53
:1052D00080819181019711969C938E93FE01EB53EF
:1052E000FE4F808191810097D1F627C08E010B532C
:1052F0001E4FFE01E953FE4F6081718182819381CF
:105300000E944900DC01CB01F80191838083DE011A
:10531000AF53BE4FFE01EB53FE4F808191818D93C1
:105320009C93FE01EF53FE4F808191810197F1F72D
:10533000FE01EF53FE4F918380838DE080937400D4
:10534000FE01E354FE4F80E090E0ACE8B2E48083DD
:105350009183A283B3838E0107541E4FFE01E35451
:10536000FE4F608171818281938120E030E04AE7C5
:1053700055E40E941F02DC01CB01F8018083918378
:10538000A283B383FE01E754FE4F60817181828165
:10539000938120E030E040E85FE30E9479038823B6
:1053A00044F4FE01E954FE4F81E090E09183808354
:1053B00064C0FE01E754FE4F608171818281938158
:1053C00020E03FEF4FE757E40E94190318160CF056
:1053D00043C0FE01E354FE4F60817181828193815D
:1053E00020E030E040E251E40E941F02DC01CB01EA
:1053F0008E0109541E4FBC01CD010E944900DC0101
:10540000CB01F801918380831FC0FE01EB54FE4F56
:1054100080E991E091838083FE01EB54FE4F80810F
:1054200091810197F1F7FE01EB54FE4F9183808348
:10543000DE01A954BE4FFE01E954FE4F80819181E7
:10544000019711969C938E93FE01E954FE4F808143
:1054500091810097D1F627C08E0109541E4FFE019D
:10546000E754FE4F60817181828193810E944900DF
:10547000DC01CB01F80191838083DE01AD54BE4F86
:10548000FE01E954FE4F808191818D939C93FE0132
:10549000ED54FE4F808191810197F1F7FE01ED54AB
:1054A000FE4F918380838EE080937400FE01E1556E
:1054B000FE4F80E090E0ACE8B2E480839183A28369
:1054C000B3838E0105551E4FFE01E155FE4F6081ED
:1054D00071818281938120E030E04AE755E40E94A7
:1054E0001F02DC01CB01F80180839183A283B38387
:1054F000FE01E555FE4F608171818281938120E03C
:1055000030E040E85FE30E947903882344F4FE0121
:10551000E755FE4F81E090E09183808364C0FE01F7
:10552000E555FE4F608171818281938120E03FEFDC
:105530004FE757E40E94190318160CF043C0FE0110
:10554000E155FE4F608171818281938120E030E0DE
:1055500040E251E40E941F02DC01CB018E0107559D
:105560001E4FBC01CD010E944900DC01CB01F801B6
:10557000918380831FC0FE01E955FE4F80E991E0D1
:1055800091838083FE01E955FE4F808191810197CF
:10559000F1F7FE01E955FE4F91838083DE01A755A7
:1055A000BE4FFE01E755FE4F808191810197119614
:1055B0009C938E93FE01E755FE4F80819181009769
:1055C000D1F627C08E0107551E4FFE01E555FE4F4F
:1055D00060817181828193810E944900DC01CB014D
:1055E000F80191838083DE01AB55BE4FFE01E75584
:1055F000FE4F808191818D939C93FE01EB55FE4F70
:10560000808191810197F1F7FE01EB55FE4F918367
:1056100080838FE0809374008AE080937300FE01A2
:10562000EF55FE4F80E090E0ACE8B2E480839183D8
:10563000A283B3838E0103561E4FFE01EF55FE4F2A
:10564000608171818281938120E030E04AE755E4F6
:105650000E941F02DC01CB01F80180839183A283A9
:10566000B383FE01E356FE4F608171818281938195
:1056700020E030E040E85FE30E947903882344F4AF
:10568000FE01E556FE4F81E090E09183808364C087
:10569000FE01E356FE4F608171818281938120E09B
:1056A0003FEF4FE757E40E94190318160CF043C070
:1056B000FE01EF55FE4F608171818281938120E070
:1056C00030E040E251E40E941F02DC01CB018E0178
:1056D00005561E4FBC01CD010E944900DC01CB01E3
:1056E000F801918380831FC0FE01E756FE4F80E9D9
:1056F00091E091838083FE01E756FE4F8081918186
:105700000197F1F7FE01E756FE4F91838083DE019A
:10571000A556BE4FFE01E556FE4F8081918101974F
:1057200011969C938E93FE01E556FE4F80819181E8
:105730000097D1F627C08E0105561E4FFE01E35695
:10574000FE4F60817181828193810E944900DC015A
:10575000CB01F80191838083DE01A956BE4FFE0183
:10576000E556FE4F808191818D939C93FE01E95611
:10577000FE4F808191810197F1F7FE01E956FE4FBE
:10578000918380838BE080937300FE01ED56FE4F82
:1057900080E090E0ACE8B2E480839183A283B3839D
:1057A0008E0101571E4FFE01ED56FE4F6081718143
:1057B0008281938120E030E04AE755E40E941F0295
:1057C000DC01CB01F80180839183A283B383FE01C6
:1057D000E157FE4F608171818281938120E030E04A
:1057E00040E85FE30E947903882344F4FE01E35715
:1057F000FE4F81E090E09183808364C0FE01E15719
:10580000FE4F608171818281938120E03FEF4FE7FD
:1058100057E40E94190318160CF043C0FE01ED5620
:10582000FE4F608171818281938120E030E040E20F
:1058300051E40E941F02DC01CB018E0103571E4F71
:10584000BC01CD010E944900DC01CB01F80191832C
:1058500080831FC0FE01E557FE4F80E991E09183F0
:105860008083FE01E557FE4F808191810197F1F71A
:10587000FE01E557FE4F91838083DE01A357BE4FA3
:10588000FE01E357FE4F80819181019711969C9311
:105890008E93FE01E357FE4F808191810097D1F6F0
:1058A00027C08E0103571E4FFE01E157FE4F608156
:1058B0007181828193810E944900DC01CB01F80152
:1058C00091838083DE01A757BE4FFE01E357FE4F51
:1058D000808191818D939C93FE01E757FE4F8081DB
:1058E00091810197F1F7FE01E757FE4F9183808385
:1058F0008CE080937300FE01EB57FE4F80E090E058
:10590000ACE8B2E480839183A283B3838E010F5706
:105910001E4FFE01EB57FE4F6081718182819381A2
:1059200020E030E04AE755E40E941F02DC01CB0191
:10593000F80180839183A283B383FE01EF57FE4F6A
:10594000608171818281938120E030E040E85FE3F3
:105950000E947903882344F4FE01E158FE4F81E060
:1059600090E09183808364C0FE01EF57FE4F608119
:1059700071818281938120E03FEF4FE757E40E94DD
:10598000190318160CF043C0FE01EB57FE4F60815F
:1059900071818281938120E030E040E251E40E94F5
:1059A0001F02DC01CB018E0101581E4FBC01CD014D
:1059B0000E944900DC01CB01F801918380831FC064
:1059C000FE01E358FE4F80E991E091838083FE0160
:1059D000E358FE4F808191810197F1F7FE01E35872
:1059E000FE4F91838083DE01A158BE4FFE01E15836
:1059F000FE4F80819181019711969C938E93FE01B9
:105A0000E158FE4F808191810097D1F627C08E0129
:105A100001581E4FFE01EF57FE4F60817181828158
:105A200093810E944900DC01CB01F80191838083BE
:105A3000DE01A558BE4FFE01E158FE4F80819181E5
:105A40008D939C93FE01E558FE4F808191810197D3
:105A5000F1F7FE01E558FE4F918380838DE080933E
:105A60007300FE01E958FE4F80E090E0AAEFB3E436
:105A700080839183A283B3838E010D581E4FFE0154
:105A8000E958FE4F608171818281938120E030E08E
:105A90004AE755E40E941F02DC01CB01F801808334
:105AA0009183A283B383FE01ED58FE4F6081718123
:105AB0008281938120E030E040E85FE30E94790337
:105AC000882344F4FE01EF58FE4F81E090E091837B
:105AD000808364C0FE01ED58FE4F60817181828138
